:02000004080AE8
:1000000000000A08D8300A080000060006000501B2
:080010000402D7070000000004
:040018004C2D0A0859
:10001C0009480A4908B5884205D0094A824202D0EB
:10002C00121A02F027FE0748074A0021121A02F0A2
:10003C002FFE064808BD00BF0000002044300A080F
:10004C006C0000206C000020A0050020A005002002
:10005C0070B501F081FA0025054E064CA41BA408CE
:10006C00A54200D170BD56F8043B98470135F7E71F
:10007C0014300A0838300A0800F038B908B500F016
:10008C0023FABDE8084001F029BA00F059BF00F08E
:10009C0057BF00F05DBF0078B0FA80F040097047A0
:1000AC000123037070470000C3781BB3174BDA6849
:1000BC004378D243C2F30222C2F10401C9B28B408D
:1000CC00D9B20F2313418278134002780B431B01E2
:1000DC0002F16042DBB202F5614282F80033037830
:1000EC000122590903F01F0302FA03F3084A42F8EC
:1000FC0021307047037801215A0903F01F039940FE
:10010C0002F12003024A42F82310704700ED00E090
:10011C0000E100E0044B1A6A09B1104301E022EA45
:10012C0000001862704700BF00380240044B5A6A46
:10013C0009B1104301E022EA00005862704700BF89
:10014C000038024008B5474B984205D101200146C2
:10015C00FFF7ECFF01203DE0B0F1804F05D101200D
:10016C000146FFF7D7FF012076E03F4B984205D1BF
:10017C0002200121FFF7CEFF02206DE03B4B98429D
:10018C0005D104200121FFF7C5FF042064E0384BA2
:10019C00984205D108200121FFF7BCFF08205BE045
:1001AC00344B984205D110200121FFF7B3FF1020EA
:1001BC0052E0314B984205D120200121FFF7AAFFD4
:1001CC00202049E02D4B984209D102200121FFF754
:1001DC00ADFF02200021BDE80840FFF7A7BF284B68
:1001EC00984207D14FF480300121FFF79FFF4FF465
:1001FC008030EFE7234B984207D14FF400300121B8
:10020C00FFF794FF4FF40030E4E71F4B984207D1FF
:10021C004FF480200121FFF789FF4FF48020D9E7AC
:10022C001A4B984205D140200121FFF773FF402063
:10023C0012E0174B984205D180200121FFF76AFF8D
:10024C00802009E0134B98420BD14FF480700121B0
:10025C00FFF760FF4FF480700021BDE80840FFF706
:10026C0059BF08BD000001400004004000080040D8
:10027C00000C00400010004000140040000401403D
:10028C00004001400044014000480140001800407B
:10029C00001C004000200040038819B19BB243F0C1
:1002AC00010303E023F001031B041B0C03807047C4
:1002BC00038A828911EA030092B203D0114214BF5F
:1002CC00012000207047C94389B2018270470EB4E7
:1002DC0003B503AB53F8042B0021019301F03AF85A
:1002EC0002B05DF804EB03B07047000010B50024B9
:1002FC0001F0CEFC4FF4165101F0B0FC0F4800F0A9
:10030C0003FB0F4B01211C600E4B04201C600E4B99
:10031C001C6001F053FF0121052001F04FFF01216A
:10032C00032001F04BFF2146022001F047FFBDE8FE
:10033C0010400121042001F052BF00BF84000020B6
:10034C00740000207C0000207800002010B5136899
:10035C0088B000930B680268124904A800F072FF81
:10036C00114B049A1B7811498DF8003002A83C23DC
:10037C0001F04AFA039C7CB16368013B63605BB992
:10038C00236820469B689847A368013BA3601BB970
:10039C0023682046DB68984704A800F095FE0020EF
:1003AC0008B010BD602D0A0870000020942D0A08BA
:1003BC00014800F019BB00BF8400002010B50524D3
:1003CC000121042001F00BFF0A2001F029F8002183
:1003DC00042001F004FF0A2001F022F8012105207D
:1003EC0001F0FDFE0A2001F01BF80021052001F0B0
:1003FC00F6FE0A2001F014F8013CE1D110BD00001A
:10040C0070B5202229492A4800F020FA0124294EEF
:10041C0001F03EFC284900F063FF01F039FC054671
:10042C0021460A2200F079FF284600F060FFFFF712
:10043C00C5FF40F6B83241F28831032001F0CEFC02
:10044C00202231461A4800F001FA4FF4967000F061
:10045C00E7FFFFF7B3FF4FF47A720320114601F068
:10046C00BDFC20221549124800F0F0F9C82000F01C
:10047C00D7FFFFF7A3FF40F6B83241F288310320D3
:10048C0001F0ACFC20220E49094800F0DFF90134E0
:10049C004FF4967000F0C4FF0B2CB9D1BDE870403E
:1004AC0020220849024800F0D1B900BF3FC0F70034
:1004BC0080000020DF20F700A12D0A081FE0F700C4
:1004CC009F60F700BF40F70070B590B0FFF770FF6A
:1004DC00064601F0DDFB0446304602F091F8024678
:1004EC000B4620466249FFF7F2FE3046614902F0A6
:1004FC0095FB614D614C70B30021304602F098FBC6
:10050C0048B32E68012E40F08E80FFF779FF2368E8
:10051C000BBB5B49684600F021FE5A4908A800F065
:10052C001DFE59490CA800F019FE694604A800F0FC
:10053C0037FE04AA0CA908A8FFF708FF04A800F0CE
:10054C00C3FD0CA800F0C0FD08A800F0BDFD684676
:10055C00266000F0B9FD022001F05AFE4B4B012839
:10056C00064618607FD101F093FB494900F0CBFEA1
:10057C002B68002B68D12E6023600021042001F031
:10058C002EFE0121052001F02AFE01F081FB4149DC
:10059C0000F0B9FE404B1A683AB10132962A1A6043
:1005AC0001BF0022226001221A6019680A2204A8E5
:1005BC0000F012FE0A22216808A800F00DFE01F0DE
:1005CC0067FB364904460CA800F0C8FD04A90CA82A
:1005DC0000F02CFE0168204600F095FE0CA800F0FF
:1005EC0073FD01F055FB2E4904460CA800F0B6FD36
:1005FC0008A90CA800F01AFE0168204600F083FE42
:10060C000CA800F061FD01F043FB264900F07BFED5
:10061C00C82000F005FF08A800F056FD04A800F063
:10062C0053FD10B070BD01F033FB1F4900F06BFEA1
:10063C000021042001F0D3FD642000F0F1FE012123
:10064C00042001F0CCFD86E7002323602B60002101
:10065C00052001F0C4FD0121042001F0C0FD01F0D2
:10066C0017FB124994E72B68012BF0D185E700BFEB
:10067C00B72D0A080000A041740000207C00002067
:10068C00D62D0A080C2E0A08202E0A087800002005
:10069C00652E0A08742E0A08000000208D2E0A0808
:1006AC009D2E0A08AB2E0A083A2E0A08802E0A083C
:1006BC000122034B0A211A700248002200F01CB9D7
:1006CC00700000208400002003681847012A03D022
:1006DC00022A03D0002070470160FBE70B6803601F
:1006EC00F8E710B5044600F033FA204610BD0000C0
:1006FC004FF47A7210B50446074B80211B680F200B
:10070C005A4301F098FD002C04DD2046BDE8104052
:10071C0000F070BA10BD00BF900000204FF47A7248
:10072C0010B50446074B00211B680F205A4301F0FB
:10073C0082FD002C04DD2046BDE8104000F05ABAC2
:10074C0010BD00BF9000002010B58368044613B1A3
:10075C00032201469847204610BD00007FB53B237D
:10076C004380244B244A43600023137053709370CE
:10077C00D3701371037201230446204E204D037075
:10078C00204B6946132000930396029501F0FEFA64
:10079C006846FFF7D9FF1C4B69461A200093CDE938
:1007AC00025601F0F3FA6846FFF7CEFF174B694685
:1007BC0021200093CDE9025601F0E8FA6846FFF7D4
:1007CC00C3FF134B694624200093CDE9025601F078
:1007DC00DDFA6846FFF7B8FF0E4B694626200093FA
:1007EC00CDE9025601F0D2FA6846FFF7ADFF20467C
:1007FC0004B070BD2F75FFFFC0000020D5060A089D
:10080C00D9060A08150A0A083D0A0A08650A0A08E0
:10081C008D0A0A08B50A0A0810B50C46094800F0FA
:10082C0097F9094B01210F201C6001F0C7FC002136
:10083C000F2001F0D4FCBDE8104001210F2001F085
:10084C00BDBC00BF940000209000002070B50C4689
:10085C0026211646FFF7E0FF42F22830FFF748FF4B
:10086C0041F29410FFF75AFF0025B5424FF40C707B
:10087C000FDA002C08DAFFF73BFF4FF4C860FFF7E4
:10088C004DFF64000135F0E7FFF732FF4FF40C70B9
:10089C00F5E7FFF72DFFBDE870400020FFF73EBFE6
:1008AC0010B5054C2046FFF759FF2046BDE8104017
:1008BC00024A034901F034BD940000206C00002072
:1008CC00EF060A0838B50A4C0A4D2378BFF35B8F44
:1008DC0013F0010F09D12046FFF7DDFB28B100F022
:1008EC0041F928602046FFF7DBFB286838BD00BFC4
:1008FC00A4000020A800002010B5024CC0E9011291
:10090C00046010BD000080BF10B504460121808832
:10091C0001F054FC20890021BDE8104001F04EBCD0
:10092C002DE9F84F054600F07DF94FF01C086C6876
:10093C000746FFF7C7FFA4B208FB04F40619FFF73C
:10094C00C1FFB28803590A201A8300F053F96C686E
:10095C00FFF7B8FFA4B208FB04F40619FFF7B2FFC7
:10096C00B288035900245A8300F04CF98146AE68D2
:10097C00FFF7A8FFB6B208FB06F68359D3F810A010
:10098C00FFF7A0FF0644B38813EA0A0F0DD100F05D
:10099C0039F9A0EB0904B4F5FA6FE8D30024384612
:1009AC0000F048F92046BDE8F88F00F02BF94FF025
:1009BC001C0A804647F24719AE68FFF783FFB6B2B0
:1009CC000AFB06F68359D3F810B0FFF77BFF0644F9
:1009DC00B38813EA0B0FE2D000F014F9A0EB080473
:1009EC004C45E9D9DAE7000010B50446FFF798FF4B
:1009FC0008B9206810BD01F011FF024901F066FF33
:100A0C00F8E700BF95438B3C10B501210648FFF772
:100A1C004FFC40B101210448FFF755FCBDE81040E4
:100A2C00024B1B68184710BD00040040AC000020AE
:100A3C0010B501210648FFF73BFC40B101210448E9
:100A4C00FFF741FCBDE81040024B5B68184710BD36
:100A5C0000080040AC00002010B501210648FFF74B
:100A6C0027FC40B101210448FFF72DFCBDE81040E4
:100A7C00024B9B68184710BD000C0040AC000020D6
:100A8C0010B501210648FFF713FC40B101210448C1
:100A9C00FFF719FCBDE81040024BDB68184710BD8E
:100AAC0000100040AC00002010B501210648FFF7F3
:100ABC00FFFB40B101210448FFF705FCBDE81040E5
:100ACC00024B1B69184710BD00140040AC000020FD
:100ADC0073B5437A0546042B08D8DFE803F00319F5
:100AEC001E2328001D23144C8DF8043000260021F1
:100AFC002046FFF7D1FB01A88DF80760FFF7D4FA69
:100B0C002046FFF71FFB6B7A0C4AD65402B070BD1F
:100B1C001E230B4C8DF80430E8E73223094C8DF87A
:100B2C000430E3E73623084C8DF80430DEE7372336
:100B3C00064C8DF80430D9E700040040C0000020BA
:100B4C0000080040000C0040001000400014004061
:100B5C00037A10B504460BB1FFF7BAFF00232372DA
:100B6C0010BD000008B5024B1B681B68019308BD43
:100B7C00B001060808B5024B1B685B68019308BD01
:100B8C00B001060808B5024B1B689B68019308BDB1
:100B9C00B001060808B5024B1B68DB68019308BD61
:100BAC00B001060808B5024B1B681B69019308BD10
:100BBC00B001060808B5024B1B685B69019308BDC0
:100BCC00B001060808B5024B1B681B6C019308BDED
:100BDC00B001060808B5024B1B68DB6F019308BD1A
:100BEC00B001060808B5024B1B685B68019308BD91
:100BFC009C01060808B5024B1B68DB68019308BD15
:100C0C009C01060808B5024B1B681B69019308BDC3
:100C1C009C01060808B5024B1B685B69019308BD73
:100C2C009C01060808B5024B1B689B6B019308BD21
:100C3C009C01060808B5024B1B68DB6B019308BDD1
:100C4C009C01060808B5024B1B685B6C019308BD40
:100C5C00D001060808B5024B1B689B6C019308BDBC
:100C6C00D001060808B5024B1B689B69019308BDAF
:100C7C00C401060808B5024B1B685B6A019308BDEA
:100C8C00C401060808B5024B1B689B6A019308BD9A
:100C9C00C401060808B5024B1B68DB6A019308BD4A
:100CAC00C401060808B5024B1B681B6B019308BDF9
:100CBC00C401060808B5024B1B685B6B019308BDA9
:100CCC00C401060808B5024B1B689B6B019308BD59
:100CDC00C401060808B5024B1B681B6C019308BDC8
:100CEC00C401060808B5024B1B681B6E019308BDB6
:100CFC00AC01060808B5024B1B685B6E019308BD7E
:100D0C00AC01060808B5024B1B689B6E019308BD2D
:100D1C00AC01060808B5024B1B68DB6E019308BDDD
:100D2C00AC01060808B5024B1B681B6F019308BD8C
:100D3C00AC01060808B5024B1B685B6F019308BD3C
:100D4C00AC01060808B5034B1B68D3F8803001933F
:100D5C0008BD0000AC01060808B5024B1B68DB6936
:100D6C00019308BDB401060808B5024B1B681B6A49
:100D7C00019308BDB401060808B5024B1B681B683B
:100D8C00019308BDA801060808B5024B1B681B6837
:100D9C00019308BDD801060808B5024B1B685B68B7
:100DAC00019308BDD801060808B5024B1B681B69E6
:100DBC00019308BDD801060808B5024B1B685B6996
:100DCC00019308BDD801060808B5024B1B689B6946
:100DDC00019308BDD801060808B5024B1B68DB69F6
:100DEC00019308BDD801060808B5024B1B681B6AA5
:100DFC00019308BDD801060808B5024B1B689B6C13
:100E0C00019308BDC001060808B5024B1B685B685E
:100E1C00019308BDA401060808B5024B1B685B6969
:100E2C00019308BDA401060808B5024B1B68DB6CD6
:100E3C00019308BDA401060808B5024B1B685B6D45
:100E4C00019308BDA401060808B5034B1B68D3F831
:100E5C009030019308BD0000A401060808B5034BAF
:100E6C001B68D3F89C30019308BD0000A401060850
:100E7C0008B5024B1B685B68019308BDC8010608E6
:100E8C0008B5024B1B689B68019308BDC801060896
:100E9C0008B5024B1B68DB68019308BDC801060846
:100EAC0008B5024B1B681B69019308BDC8010608F5
:100EBC0008B5024B1B685B69019308BDC8010608A5
:100ECC0008B5024B1B689B69019308BDC801060855
:100EDC0008B5024B1B68DB69019308BDC801060805
:100EEC0008B5024B1B681B6A019308BDC8010608B4
:100EFC0008B5024B1B681B6B019308BDC8010608A3
:100F0C0008B5024B1B685B6B019308BDC801060852
:100F1C0008B5024B1B685B69019308BDCC01060840
:100F2C0008B5024B1B681B6A019308BDCC0106086F
:100F3C0008B5024B1B68DB6B019308BDCC0106089E
:100F4C0008B5024B1B681B68019308BDA00106087D
:100F5C0008B5024B1B685B68019308BDA00106082D
:100F6C0008B5024B1B689B68019308BDA0010608DD
:100F7C0008B5024B1B685B6A019308BDA00106080B
:100F8C0008B5024B1B68DB6A019308BDA00106087B
:100F9C0008B5024B1B681B6B019308BDA00106082A
:100FAC0008B5024B1B685B6C019308BDA0010608D9
:100FBC0070B5002604460D4640F8086FFFF742FE58
:100FCC0028462570FFF7C8FE2046666070BD10B538
:100FDC000446006818B1FFF7BBFF0023236010BD67
:100FEC0010B50446FFF7F3FF204610BD0222002087
:100FFC0010B5084B084C1A60084B2060A080A071FB
:10100C00A360FFF701FF2046BDE81040044A0549E4
:10101C0001F086B9D4000020C80000200000FFFFBA
:10102C006C000020ED0F0A0810B5044601F07FFE9D
:10103C00431E20462344834206D90278197800F8CF
:10104C00011B03F80129F6E710BD70B50C46911E83
:10105C00222922D8254668B1B0FBF2F602FB160015
:10106C00C1B2092894BF30315731C9B2304605F8A6
:10107C00011BF0E72A4630212344934202D902F89F
:10108C00011BFAE75A1BAB4238BF00220023204653
:10109C00AB54FFF7C9FF204670BD0020FCE738B504
:1010AC00031E0C4615460DDA2D22B3F1004F0CBF72
:1010BC001846584201230A702A461944FFF7C5FF07
:1010CC00204638BD0123F9E710B504460068FFF748
:1010DC003FFF204610BD10B50446006808B1FFF76D
:1010EC0037FF0023C4E90133236010BD38B5044633
:1010FC000D4600680131FFF733FF10B1C4E900055C
:10110C00012038BD10B50368044623B143688B42F7
:10111C0001D3012010BD2046FFF7E8FF0028F9D0CD
:10112C00A368002BF5D122681370F2E770B50E4658
:10113C00114604461546FFF7E5FF20B92046FFF798
:10114C00CAFF204670BD2A4631462068A56001F0D2
:10115C0091FD00212268A368D154F2E738B5002331
:10116C0004460D46C0E900338360037339B1084669
:10117C0001F0DDFD294602462046FFF7D7FF204649
:10118C0038BD884210B50B46044604D0096821B11D
:10119C009A68FFF7CBFF204610BDFFF79CFFFAE7DC
:1011AC00002310B50446C0E9003383600373FFF7D6
:1011BC00E8FF204610BD38B505460C4649B1084637
:1011CC0001F0B5FD214602462846FFF7AFFF284641
:1011DC0038BDFFF780FFFAE710B5002304468AB04C
:1011EC00C4E90033A3602373084601A9FFF757FF36
:1011FC00204601A9FFF7DFFF20460AB010BD70B5ED
:10120C0005460E4609B9002070BD6AB184681444C5
:10121C002146FFF777FF0028F5D02868AB683146E8
:10122C00184401F061FDAC600120EDE710B58A684F
:10123C0009680446FFF7E3FF10B92046FFF74BFFA0
:10124C00204610BD0EB4FFB509AD55F8047B04461D
:10125C002B463A46052102A80195FFF789FE064662
:10126C000B492046FFF77AFF31462046FFF74AFF2D
:10127C00206830B12B463A46711C0195FFF778FE79
:10128C00A060204604B0BDE8F04003B0704700BF3A
:10129C00D52D0A08F8B506460D4600248F18BD4218
:1012AC000CD0336830469B6815F8011B9847031E19
:1012BC0001DB1C44F3E7002C08BF1C462046F8BD9C
:1012CC0070B505460C46084649B101F030FD2B6857
:1012DC00024621462846BDE87040DB68184770BDC1
:1012EC0008B5FFF7EDFF08BD03689B68184738B5D4
:1012FC000D210546FFF7F8FF0A2104462846FFF7A3
:10130C00F3FF204438BD38B50546FFF7D9FF044636
:10131C002846FFF7ECFF204438BD0023012A98BF74
:10132C000A2230B58BB00C468DF8243009A925461D
:10133C00B4FBF2F404FB1253DBB2092B94BF303331
:10134C003733DBB2AA4201F8013DF0D9FFF7B8FF01
:10135C000BB030BD2DE9F04186B000AF05460E460E
:10136C00381D142114463B60FFF702FE13280ED8DB
:10137C002846391DFFF7A4FF04461EB12846FFF787
:10138C00B6FF044420461837BD46BDE8F08100F195
:10139C00080323F00703E846ADEB030D2246411C7E
:1013AC003B686846FFF7E4FD69462846FFF788FF6F
:1013BC000446C546E1E7002340681A461946FFF784
:1013CC0077BD38B5046805467CB16368013B636042
:1013DC005BB9236820469B689847A368013BA360D0
:1013EC001BB923682046DB689847284638BD0B6834
:1013FC00036013B15A6801325A607047014B024ABC
:10140C001A607047D8000020CD2E0A08024B1A68CB
:10141C00024B1A60704700BF04000020DC00002063
:10142C000021FFF7F9BC10B50446FFF78DF92046F3
:10143C0010BD13B56C460B46024603C884E8030086
:10144C0093E8030082E8030094E8030083E80300B8
:10145C0002B010BD00230348034A0449836000F026
:10146C005FBF00BFE00000206C00002033140A08AE
:10147C00014B1860704700BF0800002008B5134BE3
:10148C0043B100F005FC03681B699847002801DD97
:10149C00AFF300800E4B43B100F008FD03681B69ED
:1014AC009847002801DDAFF300800A4B0BB1AFF376
:1014BC000080094B43B100F029FC03681B69984775
:1014CC00002801DDAFF3008008BD00BF0000000064
:1014DC0000000000000000000000000008B5FFF74D
:1014EC00CDFFFFF797FB014B186008BD6C05002082
:1014FC000248034A0349121A01F0BCBB00400240E7
:10150C000440024040300A08002307B51A466FF029
:10151C0077010093FFF7A2FC03B05DF804FB000019
:10152C0007B543880A2B08D0502B0BD1094B1B68ED
:10153C004BB103B05DF804EB1847FFF7E5FF03B0C0
:10154C005DF804FB00231A466FF077010093FFF758
:10155C0085FCF4E7F400002038B5124C0021124849
:10156C00FFF71EFD114D2368AB420CBF0122002278
:10157C000F4B1A7002D0FFF7BBFF2560FFF732FB51
:10158C00044601F08DFB0B4B13B12046AFF30080EA
:10159C0000210848FFF7CCFCBDE838400021064884
:1015AC00FFF752BC004002407D140A081E1C279A0B
:1015BC00F0000020000000002D150A0870470020E4
:1015CC00704710B50446102100F0AFFE204610BD48
:1015DC0008B5FFF7F6FF08BD002230B54FF69C7436
:1015EC00026084808D888C800C68858004600A6021
:1015FC0030BD10B504460068FFF7AAFC204610BDAC
:10160C0038B5C468F4B12378022B03D104F10C0073
:10161C00FFF7EFFF656835B12846FFF795F8102105
:10162C00284600F082FEA56835B12846FFF78CF8F5
:10163C001021284600F079FE2046BDE838401421E0
:10164C0000F073BE38BD73B50E46044656F8043B25
:10165C000D4601A831460093FFF7C9FE009B019A85
:10166C0023600023626001A801930093FFF7A9FE99
:10167C003046FFF7A6FE2846082100F056FE20460D
:10168C0002B070BD826810B50AB900F052FEC36892
:10169C00BDE81040184708B5006800F11001FFF7CD
:1016AC00F1FF08BD826810B50AB900F042FEC368AC
:1016BC00BDE81040184708B5006800F11001FFF7AD
:1016CC00F1FF08BD38B500230446036010200D4619
:1016DC00FEF7DBFC28B10123C0E90133024BC560E6
:1016EC0003602060204638BDF82E0A0838B5002368
:1016FC0083608B6804460D462BB102229847EB6839
:10170C00E360AB68A360204638BD0000F0B589B03B
:10171C0004686846FFF760FF4FF00203D4E84F2FD0
:10172C00002A03D1C4E8413F0029F7D125D104F1A7
:10173C000C0569462846FFF74FFF0123BFF35B8F6B
:10174C0063700020BFF35B8F04F1080353E8006F54
:10175C0043E80002002AF9D1BFF35B8F6EB1FFF7AB
:10176C0063FB78B129463046FFF78CFF3046FEF715
:10177C00EBFF1021304600F0D8FD6846FFF739FF2B
:10178C0009B0F0BD314602A8FFF7B0FFE068B4F92C
:10179C00105008B101F0B0FA06901020ADF81C50B2
:1017AC00FEF773FC0546E8B1002787601820FEF7AA
:1017BC006CFC044688B10146876002A8FFF739FE2D
:1017CC00049BA268A360059B0492E26806A9E360EF
:1017DC0004F110000592FFF7FFFE084B2C60EB6044
:1017EC00074BAB6006A8FFF704FF02A8FEF7ACFF9F
:1017FC00002229460348FFF71FFBB7E7A3160A0888
:10180C0039190A08091F0A082DE9F0478AB005465C
:10181C000C46174698469DF84890FFF779FB07AEA3
:10182C00824638BB4FF62E73059005A93046ADF8AD
:10183C001830FFF7D1FE1420FEF727FC044648B100
:10184C00022303700123C0E901AA437031460C3016
:10185C00FFF7C2FE2846214640F8044BFFF732FF43
:10186C003046FFF7C6FE05A8FFF7C3FE28460AB0B0
:10187C00BDE8F0870C234FF0000A1420CDE908AA2C
:10188C000793FEF702FC014628B1C0E901AA80F8D3
:10189C0000A080F801A004A80391FFF713FF224BCE
:1018AC0008200893FEF7F1FB824628B1039B04A99C
:1018BC0040F8043BFFF79BFD424639462046009614
:1018CC005FFA89F3CDF824A0FFF72AFBB8B9039B84
:1018DC005B7803F0FF0293B94FF69C7305A903A83C
:1018EC000592ADF81830FFF711FF05A8FFF781FE40
:1018FC0005A80999FFF7A7FE06A8FFF762FD039B51
:10190C0004A906A80593FFF772FD059B069A2B60A8
:10191C0000236A6006A806930593FFF752FD04A8FE
:10192C00FFF74FFDA2E700BFFD190A08022AF8B520
:10193C00054607D0032A18D0012A01D10B68036091
:10194C000020F8BD18200E68FEF79FFB044650B12E
:10195C003146FFF7CBFE3069B6F9147008B101F0CF
:10196C00CBF92061A7822C60EAE70468002CE7D051
:10197C0004F11000FFF73DFE2046FEF7E5FE1821AE
:10198C00204600F0D2FCDBE738B5002383608B687F
:10199C0004460D462BB102229847EB68E360AB6816
:1019AC00A360204638BD022A70B5044607D0032A2E
:1019BC0012D0012A01D10B680360002070BD1420E5
:1019CC000E68FEF762FB054620B13146FFF7DCFFDF
:1019DC00337C2B742560F0E70468002CEDD0204696
:1019EC00FEF7B2FE1421204600F09FFCE5E7000054
:1019FC00F0B5044689B00D4601A81146FFF723FE49
:101A0C00A4B124B21DB1284601F076F9054601A80F
:101A1C0003A90395ADF81040FFF778FE03A8FFF774
:101A2C00E8FD02A8FFF7CDFC09B0F0BD0123019D34
:101A3C00D5E84F2F002A03D1C5E8413F0029F7D143
:101A4C00EFD12B73BFF35B8F6B70BFF35B8F2B1DD1
:101A5C0053E8006F43E80042002AF9D1BFF35B8FD3
:101A6C00002EDED02046FFF7DFF9074660B1304686
:101A7C0005F10C01FFF716FE3046FEF765FE10214E
:101A8C00304600F052FCCCE7314603A8FFF77CFF50
:101A9C002B7B10208DF81C30FEF7F7FA0546D0B1E1
:101AAC0087601420FEF7F1FA044678B1014687608E
:101ABC0003A8FFF7BEFC059BA268A360069B0592DA
:101ACC00E268E3609DF81C3006922374064B2C6090
:101ADC00EB60064BAB6003A8FEF736FE00222946EE
:101AEC000348FFF7A9F9C7E7C3160A08B3190A0890
:101AFC00091F0A08704710B50446182100F015FCA0
:101B0C00204610BDF8B50E46002400F10807051D4F
:101B1C0017F8011D0A223046FFF7FFFBAF420444C1
:101B2C0001D12046F8BD002CF2D02E213046FFF713
:101B3C00DBFB0444ECE7000010B50446044B112217
:101B4C00002140F8043B01F0A3F8204610BD00BF73
:101B5C00142F0A080346074A10B543F8042B01F169
:101B6C00100251F8044B914243F8044BF9D10A7816
:101B7C001A7010BD142F0A08024AC0E90021042271
:101B8C0002757047142F0A0810B59DF8084044EAF6
:101B9C000324042344EA024444EA016444600375C8
:101BAC0010BD000037B5044D05609DF81850009528
:101BBC00FFF7EAFF03B030BD142F0A0841747047D9
:101BCC00704708B50021007CFFF7FEF840EAE07092
:101BDC0008BD08B50121007CFFF7F6F840EAE0707B
:101BEC0008BD08B5007CFFF7E7F820EAE07008BDF7
:101BFC0008B5007CFFF7D8F820EAE07008BD38B5CE
:101C0C000446007C0D46FFF7D7F8002801DC607C09
:101C1C0028B12946207CFFF7DFF820EAE07038BDB8
:101C2C00007CFFF7E1B810B50446142100F07DFBF1
:101C3C00204610BD10B54FF47A73044608460021B7
:101C4C00C4E90113044B207423600123114663740F
:101C5C00FFF79AF8204610BD282F0A080022007CB6
:101C6C00FFF79AB810B504461422002101F010F8C1
:101C7C00054B20466360054BE36040F20113238162
:101C8C008123238210BD00BF2801002029020020DF
:101C9C0030B50F4D87B001A8FFF7E4FF2978BFF3EB
:101CAC005B8F11F0010410D12846FEF7F4F960B1F6
:101CBC00214601AA0748FFF7BDFF2846FEF7F0F9B9
:101CCC00054A0649034800F02BFB024807B030BD1B
:101CDC00F8000020000100206C000020CD1B0A0839
:101CEC0010B504461422002100F0D2FF054B20460B
:101CFC006360054BE36040F201132381812323824F
:101D0C0010BD00BFAA020020AB03002010B50F4C81
:101D1C0086B001A8FFF7E4FF2378BFF35B8FDB07E6
:101D2C0010D42046FEF7B7F960B1012101AA08488A
:101D3C00FFF780FF2046FEF7B3F9064A0649044830
:101D4C0000F0EEFA024806B010BD00BFFC00002007
:101D5C00140100206C000020CD1B0A08826810B50D
:101D6C000AB900F0E6FAC368BDE81040184738B568
:101D7C00002383608B6804460D462BB102229847E2
:101D8C00EB68E360AB68A360204638BD7FB5124BAF
:101D9C00054610200E460093FEF777F9044610B165
:101DAC003146FFF7E4FF00232846694602AA019456
:101DBC00CDE90233FEF706FF039D041E18BF012474
:101DCC0035B12846FEF7C0FC1021284600F0ADFACC
:101DDC00204604B070BD00BF691D0A08F8B587B273
:101DEC00044638460D46164600F0A2F960B10221B1
:101DFC003846FEF7BFFE022806D132462946204659
:101E0C00BDE8F840FEF7B8BFF8BD704741747047A5
:101E1C0008B5007CFEF75EFF20EAE07008BD08B54F
:101E2C00007CFEF72FFF20EAE07008BD08B5007CAF
:101E3C00FEF738FF40EAE07008BD08B5007CFEF7FD
:101E4C0029FF40EAE07008BD007CFEF733BF70B597
:101E5C00467C04460D462EB12946207CBDE87040D8
:101E6C00FEF708BF007CFEF735FF0028F4DC304697
:101E7C0070BD10B50446142100F057FA204610BD71
:101E8C004FF0000C10B50446084611464FF47A7218
:101E9C00C4E901C2044A20742260012262741A4609
:101EAC00FEF7E0FE204610BD582F0A0838B50D4D40
:101EBC002978BFF35B8F11F0010411D12846FEF78E
:101ECC00EAF868B12146084A084B0948FFF7D8FFE1
:101EDC002846FEF7E5F8074A0749054800F020FABE
:101EEC00034838BD2C04002030040020B40400202A
:101EFC00380500206C000020171E0A0810B58368F6
:101F0C0004460BB900F015FAC3689847A3681BB1D7
:101F1C0003222146204698472046BDE81040102158
:101F2C0000F003BA7047F8B5064615460C468F18F4
:101F3C00BC4206D0336830469B6814F8011B9847A6
:101F4C00F6E72846F8BD0022007CFEF7CBBE002148
:101F5C00007CFEF7CFBE0021007CFEF7D3BE002133
:101F6C00007CFEF7D7BE0021007CFEF7DBBE10B56F
:101F7C000446142100F0D9F9204610BD10B54FF4D9
:101F8C007A73044608460021C4E90113034B114639
:101F9C0023602074FEF7D6FE204610BD882F0A0859
:101FAC00002240681146FEF77BBFF0B5154689B09C
:101FBC0011220E460446002103A800F069FE2846B3
:101FCC0000F0B5FE002781B273682846009703AA7B
:101FDC00FEF712FF30B139462046FFF7CDFD204603
:101FEC0009B0F0BD204603A9FFF7B4FDF7E70022C6
:101FFC0040681146FEF774BF002240681146FEF798
:10200C007FBF00224068FEF773BF0022406881F05A
:10201C000101FEF75DBF002340681A461946FEF722
:10202C004FBF002240681146FEF72ABF0022022152
:10203C004068FEF72DBF002340681A46FEF718BF14
:10204C000422024B5A60024A1A6070474C05002069
:10205C00B02F0A08002340681A46FEF709BF002279
:10206C0002214068FEF714BF002240681146FEF7BB
:10207C0007BF002240681146FEF712BF00234068DC
:10208C001A461946FEF714BF002340681A46194633
:10209C00FEF716BF0022406881F00101FEF718BF61
:1020AC0000224068FEF724BF002240681146FEF76C
:1020BC0027BF002240681146FEF712BF70B51546C7
:1020CC008EB0044608A8FFF737FD1122002103A8A3
:1020DC0000F0DEFD0026284600F029FE0A4B009693
:1020EC0081B25B68284603AAFEF786FE30B1314602
:1020FC002046FFF741FD20460EB070BD204603A9D7
:10210C00FFF728FDF7E700BF4C050020024B034A00
:10211C001A6000225A60704754050020E42F0A0808
:10212C0010B50446806808B1FEF794FD204610BD3A
:10213C00172870B5044601D9002070BDA0F10D031D
:10214C00022B0BD9012826D800F0C2F80021007C04
:10215C00FEF7F0FD80F00100C0B2EEE7134E3178CF
:10216C00BFF35B8F11F001050FD13046FDF793FFE4
:10217C0058B129460E48FEF71BFF3046FDF790FF7D
:10218C000C4A0D490A4800F0CBF8094B1878FEF7B9
:10219C00EBFD0028D0D1123C012C05D8FFF786FEB0
:1021AC00007CFEF78FFDD5E70120C6E75C0500201B
:1021BC00600500206C0000202D210A08172838B576
:1021CC0004460D460AD8FF2908D0FFF7B1FF28B105
:1021DC0029462046BDE83840FEF7D4BC38BD38B59A
:1021EC0004460D46FEF7D6FCFF2810D0062804D86E
:1021FC004D2323FA00F0C30709D42046FFF798FFBC
:10220C0028B129462046BDE83840FEF7CBBC38BD86
:10221C0010B50446FEF7BEFC031FDBB2012B08D938
:10222C002046FFF785FF20B12046BDE81040FEF7A1
:10223C00C1BC002010BD70B504460D461646FFF714
:10224C0077FF98B102212046FEF794FC02280DD1AD
:10225C002046FEF79FFC012801D0042806D1324607
:10226C0029462046BDE87040FEF7B4BC70BD0000A6
:10227C00002313B5074C1A46194620460093FFF766
:10228C0091FC2046044A054902B0BDE8104000F01C
:10229C0047B800BF700500206C000020011B0A0825
:1022AC00002370B5202543801423084E0446038078
:1022BC00314685600561284600F039F8314660608A
:1022CC00284600F034F8E060204670BD10300A0853
:1022DC0030B50F4D87B02978BFF35B8F11F0010437
:1022EC0013D12846FDF7D7FE78B101A8FFF7D8FF28
:1022FC00214601AA0748FFF741FE2846FDF7D0FE0C
:10230C00054A0649034800F00BF8024807B030BDF7
:10231C00880500208C0500206C000020311F0A0865
:10232C000B460146184600F097BCFDF7B2BEFDF710
:10233C00AEBE08B5FEF724FE81F0004102E000BFFE
:10234C0083F0004330B54FEA41044FEA430594EA69
:10235C00050F08BF90EA020F1FBF54EA000C55EAA4
:10236C00020C7FEA645C7FEA655C00F0E2804FEA75
:10237C005454D4EB5555B8BF6D420CDD2C4480EA57
:10238C00020281EA030382EA000083EA010180EA87
:10239C00020281EA0303362D88BF30BD11F0004FD5
:1023AC004FEA01314FF4801C4CEA113102D040420B
:1023BC0061EB410113F0004F4FEA03334CEA133346
:1023CC0002D0524263EB430394EA050F00F0A7805E
:1023DC00A4F10104D5F1200E0DDB02FA0EFC22FA59
:1023EC0005F2801841F1000103FA0EF2801843FA4D
:1023FC0005F359410EE0A5F120050EF1200E012A3E
:10240C0003FA0EFC28BF4CF0020C43FA05F3C0187B
:10241C0051EBE37101F0004507D54FF0000EDCF1F4
:10242C00000C7EEB00006EEB0101B1F5801F1BD39D
:10243C00B1F5001F0CD349085FEA30004FEA3C0CA1
:10244C0004F101044FEA445212F5800F80F09A8097
:10245C00BCF1004F08BF5FEA500C50F1000041EB9B
:10246C00045141EA050130BD5FEA4C0C404141EB9F
:10247C000101013C28BFB1F5801FE9D291F0000F9A
:10248C0004BF01460020B1FA81F308BF2033A3F149
:10249C000B03B3F120020CDA0C3208DD02F1140C40
:1024AC00C2F10C0201FA0CF021FA02F10CE002F17B
:1024BC001402D8BFC2F1200C01FA02F120FA0CFC74
:1024CC00DCBF41EA0C019040E41AA2BF01EB0451BD
:1024DC00294330BD6FEA04041F3C1CDA0C340EDCBB
:1024EC0004F11404C4F1200220FA04F001FA02F3FE
:1024FC0040EA030021FA04F345EA030130BDC4F1BC
:10250C000C04C4F1200220FA02F001FA04F340EAB0
:10251C000300294630BD21FA04F0294630BD94F061
:10252C00000F83F4801306BF81F480110134013D48
:10253C004EE77FEA645C18BF7FEA655C29D094EAB9
:10254C00050F08BF90EA020F05D054EA000C04BF37
:10255C001946104630BD91EA030F1EBF0021002022
:10256C0030BD5FEA545C05D14000494128BF41F0C1
:10257C00004130BD14F580043CBF01F5801130BD25
:10258C0001F0004545F0FE4141F470014FF00000B0
:10259C0030BD7FEA645C1ABF194610467FEA655C61
:1025AC001CBF0B46024650EA013406BF52EA033503
:1025BC0091EA030F41F4002130BD00BF90F0000FF1
:1025CC0004BF0021704730B54FF4806404F132042D
:1025DC004FF000054FF0000150E700BF90F0000FE6
:1025EC0004BF0021704730B54FF4806404F132040D
:1025FC0010F0004548BF40424FF000013EE700BFDD
:10260C0042004FEAE2014FEA31014FEA02701FBF6C
:10261C0012F07F4393F07F4F81F06051704732F09E
:10262C007F4208BF704793F07F4F04BF41F40021F5
:10263C00704730B54FF4607401F0004521F0004153
:10264C001CE700BF50EA010208BF704730B54FF0DD
:10265C0000050AE050EA010208BF704730B511F0DE
:10266C00004502D5404261EB41014FF4806404F116
:10267C0032045FEA915C3FF4D8AE4FF003025FEA9C
:10268C00DC0C18BF03325FEADC0C18BF033202EB20
:10269C00DC02C2F1200300FA03FC20FA02F001FA7A
:1026AC0003FE40EA0E0021FA02F11444BDE600BF1D
:1026BC0080F0004002E000BF81F0004142001FBFEB
:1026CC005FEA410392EA030F7FEA226C7FEA236CF4
:1026DC006AD04FEA1262D2EB1363C1BFD2184140E9
:1026EC0048404140B8BF5B42192B88BF704710F07F
:1026FC00004F40F4000020F07F4018BF404211F022
:10270C00004F41F4000121F07F4118BF494292EA89
:10271C00030F3FD0A2F1010241FA03FC10EB0C00B5
:10272C00C3F1200301FA03F100F0004302D5494242
:10273C0060EB4000B0F5000F13D3B0F1807F06D3EF
:10274C0040084FEA310102F10102FE2A51D2B1F1E7
:10275C00004F40EBC25008BF20F0010040EA0300DC
:10276C007047490040EB0000013A28BFB0F5000F5C
:10277C00EDD2B0FA80FCACF1080CB2EB0C0200FA12
:10278C000CF0AABF00EBC25052421843BCBFD04061
:10279C001843704792F0000F81F4000106BF80F4DB
:1027AC0000000132013BB5E74FEA41037FEA226C9E
:1027BC0018BF7FEA236C21D092EA030F04D092F069
:1027CC00000F08BF0846704790EA010F1CBF00209D
:1027DC00704712F07F4F04D1400028BF40F00040FA
:1027EC00704712F100723CBF00F50000704700F01A
:1027FC00004343F0FE4040F4000070477FEA226241
:10280C0016BF08467FEA23630146420206BF5FEA11
:10281C00412390EA010F40F4800070474FF0000311
:10282C0004E000BF10F0004348BF40425FEA000CD8
:10283C0008BF704743F0964301464FF000001CE080
:10284C0050EA010208BF70474FF000030AE000BFD6
:10285C0050EA010208BF704711F0004302D5404214
:10286C0061EB41015FEA010C02BF84460146002086
:10287C0043F0B64308BFA3F18053A3F50003BCFAA1
:10288C008CF2083AA3EBC25310DB01FA02FC63444E
:10289C0000FA02FCC2F12002BCF1004F20FA02F255
:1028AC0043EB020008BF20F00100704702F1200248
:1028BC0001FA02FCC2F1200250EA4C0021FA02F2A9
:1028CC0043EB020008BF20EADC7070474FF0FF0CAE
:1028DC001CEAD0521EBF1CEAD15392EA0C0F93EAA9
:1028EC000C0F6FD01A4480EA010C400218BF5FEA4B
:1028FC0041211ED04FF0006343EA501043EA5111BE
:10290C00A0FB01310CF00040B1F5000F3EBF4900B7
:10291C0041EAD3715B0040EA010062F17F02FD2ABB
:10292C001DD8B3F1004F40EBC25008BF20F001009E
:10293C00704790F0000F0CF0004C08BF49024CEAB5
:10294C00502040EA51207F3AC2BFD2F1FF0340EA47
:10295C00C250704740F400004FF00003013A5DDCB8
:10296C0012F1190FDCBF00F000407047C2F10002F9
:10297C00410021FA02F1C2F1200200FA02FC5FEAE6
:10298C00310040F1000053EA4C0308BF20EADC7030
:10299C00704792F0000F00F0004C02BF400010F4A2
:1029AC00000F013AF9D040EA0C0093F0000F01F04F
:1029BC00004C02BF490011F4000F013BF9D041EA71
:1029CC000C018FE70CEAD15392EA0C0F18BF93EA73
:1029DC000C0F0AD030F0004C18BF31F0004CD8D19D
:1029EC0080EA010000F00040704790F0000F17BF24
:1029FC0090F0004F084691F0000F91F0004F14D06A
:102A0C0092EA0C0F01D142020FD193EA0C0F03D1C1
:102A1C004B0218BF084608D180EA010000F00040C4
:102A2C0040F0FE4040F40000704740F0FE4040F49F
:102A3C00400070474FF0FF0C1CEAD0521EBF1CEA3E
:102A4C00D15392EA0C0F93EA0C0F69D0A2EB03025C
:102A5C0080EA010C49024FEA402037D04FF08053F6
:102A6C0043EA111143EA10130CF000408B4238BFBB
:102A7C005B0042F17D024FF4000C8B4224BF5B1AC9
:102A8C0040EA0C00B3EB510F24BFA3EB510340EA17
:102A9C005C00B3EB910F24BFA3EB910340EA9C00C5
:102AAC00B3EBD10F24BFA3EBD10340EADC001B0135
:102ABC0018BF5FEA1C1CE0D1FD2A3FF650AF8B42D9
:102ACC0040EBC25008BF20F0010070470CF0004CE6
:102ADC004CEA50207F32C2BFD2F1FF0340EAC25011
:102AEC00704740F400004FF00003013A37E792F0D2
:102AFC00000F00F0004C02BF400010F4000F013A30
:102B0C00F9D040EA0C0093F0000F01F0004C02BF2A
:102B1C00490011F4000F013BF9D041EA0C0195E793
:102B2C000CEAD15392EA0C0F08D142027FF47DAF2C
:102B3C0093EA0C0F7FF470AF084676E793EA0C0F1C
:102B4C0004D14B023FF44CAF08466EE730F0004C1A
:102B5C0018BF31F0004CCAD130F000427FF45CAFAA
:102B6C0031F000437FF43CAF5FE700BF4FF0FF3C18
:102B7C0006E000BF4FF0010C02E000BF4FF0010C6B
:102B8C004DF804CD4FEA40024FEA41037FEA226C34
:102B9C0018BF7FEA236C11D001B052EA530C18BF56
:102BAC0090EA010F58BFB2EB030088BFC81738BFBB
:102BBC006FEAE17018BF40F0010070477FEA226CA9
:102BCC0002D15FEA402C05D17FEA236CE4D15FEAA5
:102BDC00412CE1D05DF8040B704700BF84460846D9
:102BEC006146FFE70FB5FFF7C9FF002848BF10F19A
:102BFC00000F0FBD4DF808EDFFF7F4FF0CBF0120DF
:102C0C0000205DF808FB00BF4DF808EDFFF7EAFF68
:102C1C0034BF012000205DF808FB00BF4DF808ED23
:102C2C00FFF7E0FF94BF012000205DF808FB00BF18
:102C3C004DF808EDFFF7D2FF94BF012000205DF89E
:102C4C0008FB00BF4DF808EDFFF7C8FF34BF0120AB
:102C5C0000205DF808FB00BF10B50446044813467D
:102C6C0020B10A4602202146AFF3008010BD00BF00
:102C7C00000000000A44914200F1FF3300D170477C
:102C8C0010B511F8014B914203F8014FF9D110BD69
:102C9C0003460244934200D1704703F8011BF9E745
:102CAC0038B50D4B04461D68AB6B7BB91820FEF78D
:102CBC0047F90A4A0A4BA863C0E90023094B0122D1
:102CCC0083600B2383810023C0E904230022AB6BB8
:102CDC001C615A6138BD00BF080000200E33CDAB1B
:102CEC0034126DE6ECDE0500034611F8012B03F8F7
:102CFC00012B002AF9D17047024B0146186800F0ED
:102D0C0003B800BF0800002070B5044608460D4605
:102D1C0000F00DF8461C31462046FEF739F9044602
:102D2C0018B132462946FFF7A5FF204670BD034671
:102D3C0013F8012B002AFBD1181A01387047000038
:102D4C001D000A085D000A0885000A0889000A08A7
:102D5C00000000007B20226D795F656D61696C223B
:102D6C003A20222573222C20227375626A656374C3
:102D7C00223A20222573222C2022626F6479223A77
:102D8C002022257322207D006D61696C67756E456C
:102D9C0076656E7400466C617368696E67204C458D
:102DAC0044205374726970733A20004469737461DF
:102DBC006E636520696E2063656E74696D657465FC
:102DCC0072733A20252E31660A00536F6D656F6E53
:102DDC006520686173206F70656E656420796F750E
:102DEC007220646F6F722120416C61726D2068617A
:102DFC0073206265656E20736F756E6465642E005A
:102E0C00706F7369756D34323040676D61696C2E0B
:102E1C00636F6D00416C61726D2068617320626537
:102E2C00656E207472696767657265642100536F03
:102E3C006D65626F6479207061737365642074686A
:102E4C006520646F6F722C2062757420616C6172E6
:102E5C006D206973206F666600427574746F6E2006
:102E6C007072657373656400416C61726D20697377
:102E7C00206F6E00416C61726D206973206F666605
:102E8C0000456D61696C20436F756E7465723A20F4
:102E9C0000456D61696C2073746174653A20002D76
:102EAC002D2D2D2D2D2D2D2D2D2D2D2D2D2D2D2D46
:102EBC002D2D2D2D2D2D2D2D2D2D2D2D2D2D2D2D36
:102ECC00006170700025592D256D2D256454254801
:102EDC003A254D3A2553257A0061736374696D6503
:102EEC00000000000000000000000000C9150A08E6
:102EFC00CF150A080D160A08DD150A08CB150A08A5
:102F0C000000000000000000111B0A08011B0A0849
:102F1C00031B0A080000000000000000CD1B0A087B
:102F2C00331C0A080B1C0A08A1120A08FD1B0A080C
:102F3C00CF1B0A08DF1B0A082D1C0A08EF1B0A0806
:102F4C00C91B0A080000000000000000171E0A0838
:102F5C007F1E0A085B1E0A08A1120A082B1E0A080B
:102F6C00471E0A08391E0A08551E0A08191E0A08A7
:102F7C001D1E0A080000000000000000311F0A0896
:102F8C007B1F0A08531F0A08331F0A085B1F0A0815
:102F9C00631F0A086B1F0A08731F0A080000000051
:102FAC000000000043200A0839200A082F200A08D4
:102FBC00AD1F0A08C3130A0823200A0817200A08A1
:102FCC000F200A0805200A08FB1F0A08B71F0A0869
:102FDC00000000000000000061200A086B200A08B5
:102FEC0075200A087F200A0889200A0895200A08FB
:102FFC00A1200A08AD200A08B5200A08BF200A083B
:10300C00C9200A0800000000BD060A08AD080A081D
:10301C00F90F0A0809140A0819140A0861140A0895
:10302C004D200A0819210A087D220A080000000018
:04303C000000000090
:04304000000000008C
:1030440001000000E52E0A080C000020000000002A
:10305400000000000000000000000000000000006C
:10306400000000000000000000000000000000005C
:10307400000000000000000000000000000000004C
:10308400000000000000000000000000000000003C
:10309400000000000000000000000000000000002C
:0C30A40000000000000000000000000020
:1030B000FFFFFFFF00000102030405060708090ADD
:1030C0000B0C0D0E0F101112131415161718191AD8
:0830D0001B1C1D1E1F2028001F
:0430D80078563412E0
:04000005080A001CC9
:00000001FF
